{
  "_format": "hh-sol-artifact-1",
  "contractName": "BeethovenxMasterChef",
  "sourceName": "contracts/standard/PlatformToken/MasterChef.sol",
  "abi": [
    {
      "inputs": [
        {
          "internalType": "contract BeethovenxToken",
          "name": "_beets",
          "type": "address"
        },
        {
          "internalType": "address",
          "name": "_treasuryAddress",
          "type": "address"
        },
        {
          "internalType": "uint256",
          "name": "_beetsPerBlock",
          "type": "uint256"
        },
        {
          "internalType": "uint256",
          "name": "_startBlock",
          "type": "uint256"
        }
      ],
      "stateMutability": "nonpayable",
      "type": "constructor"
    },
    {
      "anonymous": false,
      "inputs": [
        {
          "indexed": true,
          "internalType": "address",
          "name": "user",
          "type": "address"
        },
        {
          "indexed": true,
          "internalType": "uint256",
          "name": "pid",
          "type": "uint256"
        },
        {
          "indexed": false,
          "internalType": "uint256",
          "name": "amount",
          "type": "uint256"
        },
        {
          "indexed": true,
          "internalType": "address",
          "name": "to",
          "type": "address"
        }
      ],
      "name": "Deposit",
      "type": "event"
    },
    {
      "anonymous": false,
      "inputs": [
        {
          "indexed": true,
          "internalType": "address",
          "name": "user",
          "type": "address"
        },
        {
          "indexed": true,
          "internalType": "uint256",
          "name": "pid",
          "type": "uint256"
        },
        {
          "indexed": false,
          "internalType": "uint256",
          "name": "amount",
          "type": "uint256"
        },
        {
          "indexed": true,
          "internalType": "address",
          "name": "to",
          "type": "address"
        }
      ],
      "name": "EmergencyWithdraw",
      "type": "event"
    },
    {
      "anonymous": false,
      "inputs": [
        {
          "indexed": true,
          "internalType": "address",
          "name": "user",
          "type": "address"
        },
        {
          "indexed": true,
          "internalType": "uint256",
          "name": "pid",
          "type": "uint256"
        },
        {
          "indexed": false,
          "internalType": "uint256",
          "name": "amount",
          "type": "uint256"
        }
      ],
      "name": "Harvest",
      "type": "event"
    },
    {
      "anonymous": false,
      "inputs": [
        {
          "indexed": true,
          "internalType": "uint256",
          "name": "pid",
          "type": "uint256"
        },
        {
          "indexed": false,
          "internalType": "uint256",
          "name": "allocPoint",
          "type": "uint256"
        },
        {
          "indexed": true,
          "internalType": "contract IERC20",
          "name": "lpToken",
          "type": "address"
        },
        {
          "indexed": true,
          "internalType": "contract IRewarder",
          "name": "rewarder",
          "type": "address"
        }
      ],
      "name": "LogPoolAddition",
      "type": "event"
    },
    {
      "anonymous": false,
      "inputs": [
        {
          "indexed": true,
          "internalType": "uint256",
          "name": "pid",
          "type": "uint256"
        },
        {
          "indexed": false,
          "internalType": "uint256",
          "name": "allocPoint",
          "type": "uint256"
        },
        {
          "indexed": true,
          "internalType": "contract IRewarder",
          "name": "rewarder",
          "type": "address"
        },
        {
          "indexed": false,
          "internalType": "bool",
          "name": "overwrite",
          "type": "bool"
        }
      ],
      "name": "LogSetPool",
      "type": "event"
    },
    {
      "anonymous": false,
      "inputs": [
        {
          "indexed": true,
          "internalType": "uint256",
          "name": "pid",
          "type": "uint256"
        },
        {
          "indexed": false,
          "internalType": "uint256",
          "name": "lastRewardBlock",
          "type": "uint256"
        },
        {
          "indexed": false,
          "internalType": "uint256",
          "name": "lpSupply",
          "type": "uint256"
        },
        {
          "indexed": false,
          "internalType": "uint256",
          "name": "accBeetsPerShare",
          "type": "uint256"
        }
      ],
      "name": "LogUpdatePool",
      "type": "event"
    },
    {
      "anonymous": false,
      "inputs": [
        {
          "indexed": true,
          "internalType": "address",
          "name": "previousOwner",
          "type": "address"
        },
        {
          "indexed": true,
          "internalType": "address",
          "name": "newOwner",
          "type": "address"
        }
      ],
      "name": "OwnershipTransferred",
      "type": "event"
    },
    {
      "anonymous": false,
      "inputs": [
        {
          "indexed": true,
          "internalType": "address",
          "name": "oldAddress",
          "type": "address"
        },
        {
          "indexed": true,
          "internalType": "address",
          "name": "newAddress",
          "type": "address"
        }
      ],
      "name": "SetTreasuryAddress",
      "type": "event"
    },
    {
      "anonymous": false,
      "inputs": [
        {
          "indexed": true,
          "internalType": "address",
          "name": "user",
          "type": "address"
        },
        {
          "indexed": false,
          "internalType": "uint256",
          "name": "_beetsPerSec",
          "type": "uint256"
        }
      ],
      "name": "UpdateEmissionRate",
      "type": "event"
    },
    {
      "anonymous": false,
      "inputs": [
        {
          "indexed": true,
          "internalType": "address",
          "name": "user",
          "type": "address"
        },
        {
          "indexed": true,
          "internalType": "uint256",
          "name": "pid",
          "type": "uint256"
        },
        {
          "indexed": false,
          "internalType": "uint256",
          "name": "amount",
          "type": "uint256"
        },
        {
          "indexed": true,
          "internalType": "address",
          "name": "to",
          "type": "address"
        }
      ],
      "name": "Withdraw",
      "type": "event"
    },
    {
      "inputs": [],
      "name": "POOL_PERCENTAGE",
      "outputs": [
        {
          "internalType": "uint256",
          "name": "",
          "type": "uint256"
        }
      ],
      "stateMutability": "view",
      "type": "function"
    },
    {
      "inputs": [],
      "name": "TREASURY_PERCENTAGE",
      "outputs": [
        {
          "internalType": "uint256",
          "name": "",
          "type": "uint256"
        }
      ],
      "stateMutability": "view",
      "type": "function"
    },
    {
      "inputs": [
        {
          "internalType": "uint256",
          "name": "_allocPoint",
          "type": "uint256"
        },
        {
          "internalType": "contract IERC20",
          "name": "_lpToken",
          "type": "address"
        },
        {
          "internalType": "contract IRewarder",
          "name": "_rewarder",
          "type": "address"
        }
      ],
      "name": "add",
      "outputs": [],
      "stateMutability": "nonpayable",
      "type": "function"
    },
    {
      "inputs": [],
      "name": "beets",
      "outputs": [
        {
          "internalType": "contract BeethovenxToken",
          "name": "",
          "type": "address"
        }
      ],
      "stateMutability": "view",
      "type": "function"
    },
    {
      "inputs": [],
      "name": "beetsPerBlock",
      "outputs": [
        {
          "internalType": "uint256",
          "name": "",
          "type": "uint256"
        }
      ],
      "stateMutability": "view",
      "type": "function"
    },
    {
      "inputs": [
        {
          "internalType": "uint256",
          "name": "_pid",
          "type": "uint256"
        },
        {
          "internalType": "uint256",
          "name": "_amount",
          "type": "uint256"
        },
        {
          "internalType": "address",
          "name": "_to",
          "type": "address"
        }
      ],
      "name": "deposit",
      "outputs": [],
      "stateMutability": "nonpayable",
      "type": "function"
    },
    {
      "inputs": [
        {
          "internalType": "uint256",
          "name": "_pid",
          "type": "uint256"
        },
        {
          "internalType": "address",
          "name": "_to",
          "type": "address"
        }
      ],
      "name": "emergencyWithdraw",
      "outputs": [],
      "stateMutability": "nonpayable",
      "type": "function"
    },
    {
      "inputs": [
        {
          "internalType": "uint256",
          "name": "_pid",
          "type": "uint256"
        },
        {
          "internalType": "address",
          "name": "_to",
          "type": "address"
        }
      ],
      "name": "harvest",
      "outputs": [],
      "stateMutability": "nonpayable",
      "type": "function"
    },
    {
      "inputs": [
        {
          "internalType": "uint256[]",
          "name": "_pids",
          "type": "uint256[]"
        },
        {
          "internalType": "address",
          "name": "_to",
          "type": "address"
        }
      ],
      "name": "harvestAll",
      "outputs": [],
      "stateMutability": "nonpayable",
      "type": "function"
    },
    {
      "inputs": [
        {
          "internalType": "uint256",
          "name": "",
          "type": "uint256"
        }
      ],
      "name": "lpTokens",
      "outputs": [
        {
          "internalType": "contract IERC20",
          "name": "",
          "type": "address"
        }
      ],
      "stateMutability": "view",
      "type": "function"
    },
    {
      "inputs": [
        {
          "internalType": "uint256[]",
          "name": "pids",
          "type": "uint256[]"
        }
      ],
      "name": "massUpdatePools",
      "outputs": [],
      "stateMutability": "nonpayable",
      "type": "function"
    },
    {
      "inputs": [],
      "name": "owner",
      "outputs": [
        {
          "internalType": "address",
          "name": "",
          "type": "address"
        }
      ],
      "stateMutability": "view",
      "type": "function"
    },
    {
      "inputs": [
        {
          "internalType": "uint256",
          "name": "_pid",
          "type": "uint256"
        },
        {
          "internalType": "address",
          "name": "_user",
          "type": "address"
        }
      ],
      "name": "pendingBeets",
      "outputs": [
        {
          "internalType": "uint256",
          "name": "pending",
          "type": "uint256"
        }
      ],
      "stateMutability": "view",
      "type": "function"
    },
    {
      "inputs": [
        {
          "internalType": "uint256",
          "name": "",
          "type": "uint256"
        }
      ],
      "name": "poolInfo",
      "outputs": [
        {
          "internalType": "uint256",
          "name": "allocPoint",
          "type": "uint256"
        },
        {
          "internalType": "uint256",
          "name": "lastRewardBlock",
          "type": "uint256"
        },
        {
          "internalType": "uint256",
          "name": "accBeetsPerShare",
          "type": "uint256"
        }
      ],
      "stateMutability": "view",
      "type": "function"
    },
    {
      "inputs": [],
      "name": "poolLength",
      "outputs": [
        {
          "internalType": "uint256",
          "name": "",
          "type": "uint256"
        }
      ],
      "stateMutability": "view",
      "type": "function"
    },
    {
      "inputs": [],
      "name": "renounceOwnership",
      "outputs": [],
      "stateMutability": "nonpayable",
      "type": "function"
    },
    {
      "inputs": [
        {
          "internalType": "uint256",
          "name": "",
          "type": "uint256"
        }
      ],
      "name": "rewarder",
      "outputs": [
        {
          "internalType": "contract IRewarder",
          "name": "",
          "type": "address"
        }
      ],
      "stateMutability": "view",
      "type": "function"
    },
    {
      "inputs": [
        {
          "internalType": "uint256",
          "name": "_pid",
          "type": "uint256"
        },
        {
          "internalType": "uint256",
          "name": "_allocPoint",
          "type": "uint256"
        },
        {
          "internalType": "contract IRewarder",
          "name": "_rewarder",
          "type": "address"
        },
        {
          "internalType": "bool",
          "name": "overwrite",
          "type": "bool"
        }
      ],
      "name": "set",
      "outputs": [],
      "stateMutability": "nonpayable",
      "type": "function"
    },
    {
      "inputs": [],
      "name": "startBlock",
      "outputs": [
        {
          "internalType": "uint256",
          "name": "",
          "type": "uint256"
        }
      ],
      "stateMutability": "view",
      "type": "function"
    },
    {
      "inputs": [],
      "name": "totalAllocPoint",
      "outputs": [
        {
          "internalType": "uint256",
          "name": "",
          "type": "uint256"
        }
      ],
      "stateMutability": "view",
      "type": "function"
    },
    {
      "inputs": [
        {
          "internalType": "address",
          "name": "newOwner",
          "type": "address"
        }
      ],
      "name": "transferOwnership",
      "outputs": [],
      "stateMutability": "nonpayable",
      "type": "function"
    },
    {
      "inputs": [
        {
          "internalType": "address",
          "name": "_treasuryAddress",
          "type": "address"
        }
      ],
      "name": "treasury",
      "outputs": [],
      "stateMutability": "nonpayable",
      "type": "function"
    },
    {
      "inputs": [],
      "name": "treasuryAddress",
      "outputs": [
        {
          "internalType": "address",
          "name": "",
          "type": "address"
        }
      ],
      "stateMutability": "view",
      "type": "function"
    },
    {
      "inputs": [
        {
          "internalType": "uint256",
          "name": "_beetsPerBlock",
          "type": "uint256"
        }
      ],
      "name": "updateEmissionRate",
      "outputs": [],
      "stateMutability": "nonpayable",
      "type": "function"
    },
    {
      "inputs": [
        {
          "internalType": "uint256",
          "name": "_pid",
          "type": "uint256"
        }
      ],
      "name": "updatePool",
      "outputs": [
        {
          "components": [
            {
              "internalType": "uint256",
              "name": "allocPoint",
              "type": "uint256"
            },
            {
              "internalType": "uint256",
              "name": "lastRewardBlock",
              "type": "uint256"
            },
            {
              "internalType": "uint256",
              "name": "accBeetsPerShare",
              "type": "uint256"
            }
          ],
          "internalType": "struct BeethovenxMasterChef.PoolInfo",
          "name": "pool",
          "type": "tuple"
        }
      ],
      "stateMutability": "nonpayable",
      "type": "function"
    },
    {
      "inputs": [
        {
          "internalType": "uint256",
          "name": "",
          "type": "uint256"
        },
        {
          "internalType": "address",
          "name": "",
          "type": "address"
        }
      ],
      "name": "userInfo",
      "outputs": [
        {
          "internalType": "uint256",
          "name": "amount",
          "type": "uint256"
        },
        {
          "internalType": "uint256",
          "name": "rewardDebt",
          "type": "uint256"
        }
      ],
      "stateMutability": "view",
      "type": "function"
    },
    {
      "inputs": [
        {
          "internalType": "uint256",
          "name": "_pid",
          "type": "uint256"
        },
        {
          "internalType": "uint256",
          "name": "_amount",
          "type": "uint256"
        },
        {
          "internalType": "address",
          "name": "_to",
          "type": "address"
        }
      ],
      "name": "withdrawAndHarvest",
      "outputs": [],
      "stateMutability": "nonpayable",
      "type": "function"
    }
  ],
  "bytecode": "0x60806040526000600a553480156200001657600080fd5b506040516200224d3803806200224d83398101604081905262000039916200016f565b620000443362000106565b6753444835ec580000821115620000c75760405162461bcd60e51b815260206004820152603360248201527f6d6178696d756d20656d697373696f6e2072617465206f66203620626565747360448201527f2070657220626c6f636b20657863656564656400000000000000000000000000606482015260840160405180910390fd5b600180546001600160a01b039586166001600160a01b0319918216179091556002805494909516931692909217909255600391909155600b55620001bc565b600080546001600160a01b038381166001600160a01b0319831681178455604051919092169283917f8be0079c531659141344cd1fd0a4f28419497f9722a3daafe3b4186f6b6457e09190a35050565b6001600160a01b03811681146200016c57600080fd5b50565b600080600080608085870312156200018657600080fd5b8451620001938162000156565b6020860151909450620001a68162000156565b6040860151606090960151949790965092505050565b61208180620001cc6000396000f3fe608060405234801561001057600080fd5b50600436106101a95760003560e01c806351eb05a6116100f95780638dbdbe6d11610097578063c346253d11610071578063c346253d146103b2578063c5f956af146103c5578063d1abb907146103d8578063f2fde38b146103eb57600080fd5b80638dbdbe6d1461034557806393f1a40b14610358578063ab7de0981461039f57600080fd5b8063715018a6116100d3578063715018a6146103065780638519359d1461030e57806388bba42f146103215780638da5cb5b1461033457600080fd5b806351eb05a6146102b557806357a5b58c146102ea5780636a44e1f3146102fd57600080fd5b80631bb5e2dc116101665780632f940c70116101405780632f940c701461027d57806339e5f4ff1461029057806348cd4cb1146102995780634bf37df6146102a257600080fd5b80631bb5e2dc1461022c578063269db900146102575780632d809cb61461026a57600080fd5b8063081e3eda146101ae5780630ba84cd2146101c55780631526fe27146101da578063173b31d81461020857806317caf6f11461021057806318fccc7614610219575b600080fd5b6004545b6040519081526020015b60405180910390f35b6101d86101d3366004611c64565b6103fe565b005b6101ed6101e8366004611c64565b6104e2565b604080519384526020840192909252908201526060016101bc565b6101b2608081565b6101b2600a5481565b6101d8610227366004611c92565b610515565b61023f61023a366004611c64565b610666565b6040516001600160a01b0390911681526020016101bc565b6101b2610265366004611c92565b610690565b6101d8610278366004611cc2565b610844565b6101d861028b366004611c92565b6108ba565b6101b261036881565b6101b2600b5481565b6101d86102b0366004611d2b565b610a05565b6102c86102c3366004611c64565b610a8f565b60408051825181526020808401519082015291810151908201526060016101bc565b6101d86102f8366004611d82565b610daf565b6101b260035481565b6101d8610ded565b60015461023f906001600160a01b031681565b6101d861032f366004611dd2565b610e23565b6000546001600160a01b031661023f565b6101d8610353366004611e1c565b610ff7565b61038a610366366004611c92565b60096020908152600092835260408084209091529082529020805460019091015482565b604080519283526020830191909152016101bc565b6101d86103ad366004611e4a565b611195565b61023f6103c0366004611c64565b611490565b60025461023f906001600160a01b031681565b6101d86103e6366004611e1c565b6114a0565b6101d86103f9366004611cc2565b6116ea565b6000546001600160a01b031633146104315760405162461bcd60e51b815260040161042890611e81565b60405180910390fd5b6753444835ec5800008111156104a55760405162461bcd60e51b815260206004820152603360248201527f6d6178696d756d20656d697373696f6e2072617465206f662036206265657473604482015272081c195c88189b1bd8dac8195e18d959591959606a1b6064820152608401610428565b600381905560405181815233907fe2492e003bbe8afa53088b406f0c1cb5d9e280370fc72a74cf116ffd343c40539060200160405180910390a250565b600481815481106104f257600080fd5b600091825260209091206003909102018054600182015460029092015490925083565b600061052083610a8f565b6000848152600960209081526040808320338452909152808220908301518154939450909264e8d4a510009161055591611ecc565b61055f9190611eeb565b905060008260010154826105739190611f0d565b600184018390559050801561058c5761058c8582611785565b6000600887815481106105a1576105a1611f24565b6000918252602090912001546001600160a01b03169050801561062657835460405163494dffe160e11b81526001600160a01b0383169163929bffc2916105f3918b9133918c91899190600401611f3a565b600060405180830381600087803b15801561060d57600080fd5b505af1158015610621573d6000803e3d6000fd5b505050505b604051828152879033907f71bab65ced2e5750775a0613be067df48ef06cf92a496ebf7663ae06609249549060200160405180910390a350505050505050565b6005818154811061067657600080fd5b6000918252602090912001546001600160a01b0316905081565b600080600484815481106106a6576106a6611f24565b600091825260208083208784526009825260408085206001600160a01b038916865290925290832060039290920201600281015460058054929550929390929091889081106106f7576106f7611f24565b6000918252602090912001546040516370a0823160e01b81523060048201526001600160a01b03909116906370a0823190602401602060405180830381865afa158015610748573d6000803e3d6000fd5b505050506040513d601f19601f8201168201806040525081019061076c9190611f69565b905083600101544311801561078057508015155b1561080c5760008460010154436107979190611f0d565b600a5486546003549293506000926107af9085611ecc565b6107b99190611ecc565b6107c39190611eeb565b905060006103e86107d661036884611ecc565b6107e09190611eeb565b9050836107f264e8d4a5100083611ecc565b6107fc9190611eeb565b6108069086611f82565b94505050505b6001830154835464e8d4a5100090610825908590611ecc565b61082f9190611eeb565b6108399190611f0d565b979650505050505050565b6000546001600160a01b0316331461086e5760405162461bcd60e51b815260040161042890611e81565b600280546001600160a01b0319166001600160a01b03831690811790915560405181907f61885cdba916be748ff3e3f6f15e4206153b8ea3b7acabade9d04b4063a8351090600090a350565b600082815260096020908152604080832033845290915281208054828255600182018390556008805492939192869081106108f7576108f7611f24565b6000918252602090912001546001600160a01b03169050801561097c5760405163494dffe160e11b81526001600160a01b0382169063929bffc290610949908890339089906000908190600401611f3a565b600060405180830381600087803b15801561096357600080fd5b505af1158015610977573d6000803e3d6000fd5b505050505b6109b084836005888154811061099457610994611f24565b6000918252602090912001546001600160a01b031691906118b2565b836001600160a01b031685336001600160a01b03167f2cac5e20e1541d836381527a43f651851e302817b71dc8e810284e69210c1c6b856040516109f691815260200190565b60405180910390a45050505050565b60005b82811015610a8957600060096000868685818110610a2857610a28611f24565b6020908102929092013583525081810192909252604090810160009081203382529092529020541115610a7757610a77848483818110610a6a57610a6a611f24565b9050602002013583610515565b80610a8181611f9a565b915050610a08565b50505050565b610ab360405180606001604052806000815260200160008152602001600081525090565b60048281548110610ac657610ac6611f24565b600091825260209182902060408051606081018252600390930290910180548352600181015493830184905260020154908201529150431115610daa57600060058381548110610b1857610b18611f24565b6000918252602090912001546040516370a0823160e01b81523060048201526001600160a01b03909116906370a0823190602401602060405180830381865afa158015610b69573d6000803e3d6000fd5b505050506040513d601f19601f82011682018060405250810190610b8d9190611f69565b90508015610d1a576000826020015143610ba79190611f0d565b600a548451600354929350600092610bbf9085611ecc565b610bc99190611ecc565b610bd39190611eeb565b905060006103e8610be661036884611ecc565b610bf09190611eeb565b6001546002549192506001600160a01b03908116916340c10f1991166103e8610c1a608087611ecc565b610c249190611eeb565b6040516001600160e01b031960e085901b1681526001600160a01b0390921660048301526024820152604401600060405180830381600087803b158015610c6a57600080fd5b505af1158015610c7e573d6000803e3d6000fd5b50506001546040516340c10f1960e01b8152306004820152602481018590526001600160a01b0390911692506340c10f199150604401600060405180830381600087803b158015610cce57600080fd5b505af1158015610ce2573d6000803e3d6000fd5b505050508364e8d4a5100082610cf89190611ecc565b610d029190611eeb565b8560400151610d119190611f82565b60408601525050505b4360208301526004805483919085908110610d3757610d37611f24565b60009182526020918290208351600390920201908155828201516001820155604092830151600290910155838101518483015183519182529181018490529182015283907fcb7325664a4a3b7c7223eefc492a97ca4fdf94d46884621e5a8fae5a04b2b9d29060600160405180910390a2505b919050565b8060005b81811015610a8957610ddc848483818110610dd057610dd0611f24565b90506020020135610a8f565b50610de681611f9a565b9050610db3565b6000546001600160a01b03163314610e175760405162461bcd60e51b815260040161042890611e81565b610e216000611915565b565b6000546001600160a01b03163314610e4d5760405162461bcd60e51b815260040161042890611e81565b813b151580610e6357506001600160a01b038216155b610ebe5760405162461bcd60e51b815260206004820152602660248201527f7365743a207265776172646572206d75737420626520636f6e7472616374206f60448201526572207a65726f60d01b6064820152608401610428565b8260048581548110610ed257610ed2611f24565b906000526020600020906003020160000154600a54610ef19190611f0d565b610efb9190611f82565b600a819055508260048581548110610f1557610f15611f24565b60009182526020909120600390910201558015610f6f578160088581548110610f4057610f40611f24565b9060005260206000200160006101000a8154816001600160a01b0302191690836001600160a01b031602179055505b80610fa15760088481548110610f8757610f87611f24565b6000918252602090912001546001600160a01b0316610fa3565b815b6001600160a01b0316847f95895a6ab1df54420d241b55243258a33e61b2194db66c1179ec521aae8e18658584604051610fe99291909182521515602082015260400190565b60405180910390a350505050565b600061100284610a8f565b60008581526009602090815260408083206001600160a01b03871684529091529020805491925090611035908590611f82565b8155604082015164e8d4a510009061104d9086611ecc565b6110579190611eeb565b81600101546110669190611f82565b816001018190555060006008868154811061108357611083611f24565b6000918252602090912001546001600160a01b03169050801561110957815460405163494dffe160e11b81526001600160a01b0383169163929bffc2916110d6918a918991829160009190600401611f3a565b600060405180830381600087803b1580156110f057600080fd5b505af1158015611104573d6000803e3d6000fd5b505050505b61113f33308760058a8154811061112257611122611f24565b6000918252602090912001546001600160a01b0316929190611965565b836001600160a01b031686336001600160a01b03167f02d7e648dd130fc184d383e55bb126ac4c9c60e8f94bf05acdf557ba2d540b478860405161118591815260200190565b60405180910390a4505050505050565b6000546001600160a01b031633146111bf5760405162461bcd60e51b815260040161042890611e81565b813b61121c5760405162461bcd60e51b815260206004820152602660248201527f6164643a204c5020746f6b656e206d75737420626520612076616c696420636f6044820152651b9d1c9858dd60d21b6064820152608401610428565b803b15158061123257506001600160a01b038116155b61128d5760405162461bcd60e51b815260206004820152602660248201527f6164643a207265776172646572206d75737420626520636f6e7472616374206f60448201526572207a65726f60d01b6064820152608401610428565b61129860068361199d565b156112dd5760405162461bcd60e51b81526020600482015260156024820152741859190e88131408185b1c9958591e481859191959605a1b6044820152606401610428565b6000600b5443116112f057600b546112f2565b435b905083600a546113029190611f82565b600a55600580546001810182556000919091527f036b6384b5eca791c62761152d0c79bb0604c104a5fb6f4eb0703f3154bb3db00180546001600160a01b0319166001600160a01b03851617905561135b6006846119c4565b506008805460018082019092557ff3f7a9fe364faab93b216da50a3214154f22a0a2b415b23a84c8169e8b636ee30180546001600160a01b0319166001600160a01b0385811691821790925560408051606081018252888152602081018681526000928201838152600480548089018255945291517f8a35acfbc15ff81a39ae7d344fd709f28e8600b4aa8c65c6b64bfe7fe36bd19b600390940293840155517f8a35acfbc15ff81a39ae7d344fd709f28e8600b4aa8c65c6b64bfe7fe36bd19c830155517f8a35acfbc15ff81a39ae7d344fd709f28e8600b4aa8c65c6b64bfe7fe36bd19d9091015560055490929186169161145791611f0d565b6040518781527f81ee0f8c5c46e2cb41984886f77a84181724abb86c32a5f6de539b07509d45e59060200160405180910390a450505050565b6008818154811061067657600080fd5b60006114ab84610a8f565b600085815260096020908152604080832033845290915290208054919250908411156115255760405162461bcd60e51b815260206004820152602360248201527f63616e6e6f74207769746864726177206d6f7265207468616e206465706f73696044820152621d195960ea1b6064820152608401610428565b600064e8d4a51000836040015183600001546115419190611ecc565b61154b9190611eeb565b9050600082600101548261155f9190611f0d565b905064e8d4a510008460400151876115779190611ecc565b6115819190611eeb565b61158b9083611f0d565b6001840155825461159d908790611f0d565b83556115a98582611785565b6000600888815481106115be576115be611f24565b6000918252602090912001546001600160a01b03169050801561164357835460405163494dffe160e11b81526001600160a01b0383169163929bffc291611610918c9133918c91899190600401611f3a565b600060405180830381600087803b15801561162a57600080fd5b505af115801561163e573d6000803e3d6000fd5b505050505b61165b868860058b8154811061099457610994611f24565b856001600160a01b031688336001600160a01b03167f8166bf25f8a2b7ed3c85049207da4358d16edbed977d23fa2ee6f0dde3ec21328a6040516116a191815260200190565b60405180910390a4604051828152889033907f71bab65ced2e5750775a0613be067df48ef06cf92a496ebf7663ae06609249549060200160405180910390a35050505050505050565b6000546001600160a01b031633146117145760405162461bcd60e51b815260040161042890611e81565b6001600160a01b0381166117795760405162461bcd60e51b815260206004820152602660248201527f4f776e61626c653a206e6577206f776e657220697320746865207a65726f206160448201526564647265737360d01b6064820152608401610428565b61178281611915565b50565b6001546040516370a0823160e01b81523060048201526000916001600160a01b0316906370a0823190602401602060405180830381865afa1580156117ce573d6000803e3d6000fd5b505050506040513d601f19601f820116820180604052508101906117f29190611f69565b9050808211156118745760015460405163a9059cbb60e01b81526001600160a01b038581166004830152602482018490529091169063a9059cbb906044015b6020604051808303816000875af1158015611850573d6000803e3d6000fd5b505050506040513d601f19601f82011682018060405250810190610a899190611fb3565b60015460405163a9059cbb60e01b81526001600160a01b038581166004830152602482018590529091169063a9059cbb90604401611831565b505050565b6040516001600160a01b0383166024820152604481018290526118ad90849063a9059cbb60e01b906064015b60408051601f198184030181529190526020810180516001600160e01b03166001600160e01b0319909316929092179091526119d9565b600080546001600160a01b038381166001600160a01b0319831681178455604051919092169283917f8be0079c531659141344cd1fd0a4f28419497f9722a3daafe3b4186f6b6457e09190a35050565b6040516001600160a01b0380851660248301528316604482015260648101829052610a899085906323b872dd60e01b906084016118de565b6001600160a01b038116600090815260018301602052604081205415155b90505b92915050565b60006119bb836001600160a01b038416611aab565b6000611a2e826040518060400160405280602081526020017f5361666545524332303a206c6f772d6c6576656c2063616c6c206661696c6564815250856001600160a01b0316611afa9092919063ffffffff16565b8051909150156118ad5780806020019051810190611a4c9190611fb3565b6118ad5760405162461bcd60e51b815260206004820152602a60248201527f5361666545524332303a204552433230206f7065726174696f6e20646964206e6044820152691bdd081cdd58d8d9595960b21b6064820152608401610428565b6000818152600183016020526040812054611af2575081546001818101845560008481526020808220909301849055845484825282860190935260409020919091556119be565b5060006119be565b6060611b098484600085611b13565b90505b9392505050565b606082471015611b745760405162461bcd60e51b815260206004820152602660248201527f416464726573733a20696e73756666696369656e742062616c616e636520666f6044820152651c8818d85b1b60d21b6064820152608401610428565b843b611bc25760405162461bcd60e51b815260206004820152601d60248201527f416464726573733a2063616c6c20746f206e6f6e2d636f6e74726163740000006044820152606401610428565b600080866001600160a01b03168587604051611bde9190611ffc565b60006040518083038185875af1925050503d8060008114611c1b576040519150601f19603f3d011682016040523d82523d6000602084013e611c20565b606091505b509150915061083982828660608315611c3a575081611b0c565b825115611c4a5782518084602001fd5b8160405162461bcd60e51b81526004016104289190612018565b600060208284031215611c7657600080fd5b5035919050565b6001600160a01b038116811461178257600080fd5b60008060408385031215611ca557600080fd5b823591506020830135611cb781611c7d565b809150509250929050565b600060208284031215611cd457600080fd5b8135611b0c81611c7d565b60008083601f840112611cf157600080fd5b50813567ffffffffffffffff811115611d0957600080fd5b6020830191508360208260051b8501011115611d2457600080fd5b9250929050565b600080600060408486031215611d4057600080fd5b833567ffffffffffffffff811115611d5757600080fd5b611d6386828701611cdf565b9094509250506020840135611d7781611c7d565b809150509250925092565b60008060208385031215611d9557600080fd5b823567ffffffffffffffff811115611dac57600080fd5b611db885828601611cdf565b90969095509350505050565b801515811461178257600080fd5b60008060008060808587031215611de857600080fd5b84359350602085013592506040850135611e0181611c7d565b91506060850135611e1181611dc4565b939692955090935050565b600080600060608486031215611e3157600080fd5b83359250602084013591506040840135611d7781611c7d565b600080600060608486031215611e5f57600080fd5b833592506020840135611e7181611c7d565b91506040840135611d7781611c7d565b6020808252818101527f4f776e61626c653a2063616c6c6572206973206e6f7420746865206f776e6572604082015260600190565b634e487b7160e01b600052601160045260246000fd5b6000816000190483118215151615611ee657611ee6611eb6565b500290565b600082611f0857634e487b7160e01b600052601260045260246000fd5b500490565b600082821015611f1f57611f1f611eb6565b500390565b634e487b7160e01b600052603260045260246000fd5b9485526001600160a01b0393841660208601529190921660408401526060830191909152608082015260a00190565b600060208284031215611f7b57600080fd5b5051919050565b60008219821115611f9557611f95611eb6565b500190565b600060018201611fac57611fac611eb6565b5060010190565b600060208284031215611fc557600080fd5b8151611b0c81611dc4565b60005b83811015611feb578181015183820152602001611fd3565b83811115610a895750506000910152565b6000825161200e818460208701611fd0565b9190910192915050565b6020815260008251806020840152612037816040850160208701611fd0565b601f01601f1916919091016040019291505056fea2646970667358221220e62374072006bf62cdfa6f4ad4e4a11d634d2f13e036a9a0f646585894dd42f964736f6c634300080e0033",
  "linkReferences": {},
  "deployedLinkReferences": {}
}